:020000040800F2
:1000000000040020A92D010831C40008B9320008FD
:100010007B3500087B3500087B3500087B35000800
:100020007B3500087B3500087B3500087B350008F0
:100030007B3500087B3500087B3500087B350008E0
:100040007B350008A5F90008CFF900087B350008CA
:100050007B35000879F80008AFF80008E5F80008DB
:100060007B35000879DB00087DDC0008EBDC00084C
:10007000335E00087B3500087B3500080DF800086A
:1000800051F100087B3500087B3500087B350008FE
:100090007B3500087B3500087B350008B9E2000895
:1000A0007B3500087B3500087B35000895F7000894
:1000B0007B3500087B3500087B35000835EA0008F1
:1000C000F1B58CB001220A400292114601228A4306
:1000D000039200210C9A029B9B00D21801920C9B68
:1000E000039CA4001B1900931D4601240C400B0621
:1000F0005B0E660001241C4034435B08660001244B
:100100001C4034435B08660001241C4034435B08F8
:10011000660001241C4034435B08660001241C4037
:1001200034435B08640001261E40264374005B08CC
:100130001C43A1420CDA1368E400019E36193768AB
:10014000176033602B68009E341926682E60236088
:10015000491C0835083280235B009942C5DB022523
:100160000C9803998900401800900C980299890016
:1001700040180190E80F4019C403240C802040006F
:10018000290003F0B8F800220B9521000292029C8E
:10019000A4B20022029B5B1808939C425DDA0A918C
:1001A000099004920A9960180004400B00990918FC
:1001B00007910E680199081806900768C4480499C9
:1001C000890040180390802149004058059039006B
:1001D00003F0EBF8050003980068310003F0E5F840
:1001E000290003F03AF905000598310003F0DDF825
:1001F000060003980068390003F0D7F801003000CA
:1002000003F063F90600E7000198C0190390006845
:10021000290003F05AF9069908600098C719386850
:10022000310003F052F9079908600398006829002B
:1002300003F013F9039908603868310003F00DF9F1
:100240003860641CA4B204980999401880B20490E4
:1002500008988442A6DB0A990998029A0B9BD21847
:1002600092B2029280225200029B93428FDB0B9843
:10027000904204D04500ADB2954200DC7AE70DB063
:10028000F0BDF0B587B09348934989698861934878
:1002900005909348049093480290934C83E030BFBC
:1002A00050E030BF3E20205E0028FAD1CA208000F6
:1002B0003818216D884780204000E989014202D02A
:1002C000019801F0BFFA05980068002103F056F983
:1002D00002D0019801F0B2FB8448007800282CD1AC
:1002E0000198401C019008370398001D0390019865
:1002F0000C21695E88421BDA0398006800F08EFAD0
:100300000600022E01DC032602E0082E00DD08268E
:1003100003F052FAE68700E030BF3E21615E00291B
:10032000FAD13800216D884703F099FAE687B9E7DA
:1003300000F0E8F80120694608700020A0700298DB
:1003400003F0B1FB029803F05FFB6948802189014B
:10035000018005F027FC0120205600281CD0002039
:10036000C0433A21615E81420BD0624D280005F006
:1003700052FD280005F0E9FC608703F0B7FC08F0A7
:100380005FF868460078002806D0049806F0BCFBA9
:100390000120218F084320876846007807F0EBFA98
:1003A000029803F080FB0020694608706078A1780D
:1003B0000143090600D172E7029803F025FB4C487F
:1003C000802189014180642008F011FA00204A4907
:1003D000049F01900391494D89E74348012141560B
:1003E000491E8941C90F41707047F0B581B00100C5
:1003F0000027FE25AD05002402F0D7FF009038004D
:10040000290003F02AF80700FE208005210003F0F0
:1004100024F804008120C005210002F0C6FF21005D
:1004200002F0C3FF0100009808F04AFA290002F028
:10043000BCFF06003248390002F0B7FF310008F077
:1004400095FA41D2380003F008F80700FE20800535
:10045000210003F002F804008125ED05290002F0D7
:10046000A4FF210002F0A1FF0100009808F028FA83
:10047000310002F09AFF06002148390002F095FF92
:10048000310008F073FA1FD2380002F0E6FF0700CF
:10049000FE208005210002F0E0FF0400290002F0A8
:1004A00084FF210002F081FF0100009808F008FAA3
:1004B000310002F07AFF05001149380002F075FFA3
:1004C000290008F053FA9AD3380001B0F0BD0000BB
:1004D000701001081C09010858240020EC1B0020A2
:1004E0004C1C00209C2200200004002054230020EB
:1004F0001808004800240140900A0020800A0020CB
:1005000017B7D138F0B58BB0AF49B048081805908F
:100510000278D00700D43AE16520002400250623A4
:100520001340022B01D0042B02D101246525CA20DF
:10053000002301931823134002D0102B02D003E0B4
:10054000B34A00E0B34A0192B34A891800910226E7
:100550009C4F08F01FFA390002F07FFF06900198C7
:1005600008F034FA08AA03C2079502940496CA2236
:100570009200CC4C0099200008F042FA07986526BA
:1005800003908027FF05FE25AD050198002102F0AC
:10059000F5FF27D0039808F00DFA390002F005FFA7
:1005A000069908F08DF9874902F057FF010002F023
:1005B000FCFE0100280002F088FF08F007FA08F0AE
:1005C0004DFA08AA0CCA08F0A9FA08F069FBFFF76F
:1005D0000CFF05000198FFF708FF0100280008F054
:1005E0006FF905002068290002F0DFFE20606068D6
:1005F000290002F0DAFE606008340398401C039082
:10060000761EC0D1A74CCA208000201800210160AE
:100610004160CC20800020184D2100220260426001
:100620008260C2601030491EF8D1029800281FD0A5
:10063000FC20C000201821000831192280252D0639
:100640000B6883614B686B40C3618B680361CB6847
:100650006B4043610B6983604B696B40C3608B697E
:100660000360CB696B40436020312038521EE7D1D4
:1006700001212000FFF724FDCA22920021000098EA
:1006800008F0BEF9EE25AD0500980068290002F0DB
:100690008CFE009908600298002801D0002004E038
:1006A00000984068290002F080FE00994860012609
:1006B000009F0837029C3868290002F076FE3860F7
:1006C000002C01D0002003E07868290002F06DFEC4
:1006D0007860761CB868290002F067FEB860002CCC
:1006E00001D0002003E0F868290002F05EFEF86007
:1006F000761C3869290002F058FE3861002C01D0C0
:10070000002003E07869290002F04FFE7861761C32
:10071000B869290002F049FEB861002C01D0002020
:1007200003E0F869290002F040FEF861761C2037EA
:10073000652EC0DB0294062005990978084004283C
:100740001BD1009C0834192520682100083909684C
:1007500002F083FE01002160A06802F07EFE01002D
:10076000A160206902F079FE01002161A06902F018
:1007700074FEA06120346D1EE6D10098CA21890064
:10078000401800900498401E049000D0EFE60BB093
:10079000F0BD00208E494870704710B500F019FD7B
:1007A0008B4C44202056002808D00748C089C0053B
:1007B00004D59D480021405E01F04EFB0120607091
:1007C00010BD0000000080BF800A0020C41100009E
:1007D00010B5040001290CD194A1106808F091FA19
:1007E000002806D19249200008F08CFC03F028FD77
:1007F00010BD9049200008F085FC8F480168C20CAC
:100800000A4302608D4860214160FF210160FEE7DC
:100810000000C04000005041CC110000F0B581B094
:1008200006006B4DE86CB04201D1002028E00024A6
:100830003000296B02F062FD0700E86C296B02F0C2
:100840005DFD874209D0B848790040180121415622
:100850000022805603F05AF80A240020285600216E
:10086000C943884205D1286BB04201D2032000E081
:100870000020C2B2A96C300008F0F8FEEE64201827
:1008800001B0F0BD10B5012903D06D4908F03AFC64
:1008900010BD4F4C106809F02FF9A064E06CFFF711
:1008A000BDFF10BDC427002030B581B01400012960
:1008B00003D09E4908F026FC0EE000204449487011
:1008C000B74D280003F0A0F8206809F015F9FFF7EC
:1008D000A5FF280003F0E7F801B030BD10B50129ED
:1008E00003D0934908F00EFC10BD394C106809F094
:1008F00003F92070E06CFFF791FF10BD10B584B0D4
:10090000040002A98B4809F02DF903984001400921
:1009100001900298C002C00E009002980005030FDB
:100920000298C0B29F494218C249200008F0EAFB71
:1009300004B010BD30B581B0254D012909D00400A7
:10094000994908F0DFFBAA8A9849200008F0DAFBF1
:1009500008E0106809F0D0F8A88282B20021B648F9
:1009600009F022F901B030BD30B581B0184D012930
:1009700009D00400B14908F0C5FB2A6BB04920003A
:1009800008F0C0FB03E0106809F0B6F8286301B076
:1009900030BD10B5040009F00DF9C049200008F081
:1009A000B1FB10BD10B50400012901D0A5490BE031
:1009B000A549106808F0A5F9002801D0A34902E074
:1009C00009F05AFAB849200008F09CFB10BD00005D
:1009D0000004002030B581B008001100B04C3E2268
:1009E000A25E012A1ADBAF4A400015183E20205EA5
:1009F000012802D1280009F089FA29003C20205E54
:100A0000012801D1A94902E0022800D1A849C02249
:100A1000A84807F0F5FFE08F401EE087E068401C23
:100A2000E06001B030BD0000543A002064667500FB
:100A3000A8090108C80901081C100240002C004048
:100A4000DC090108F0B589B0060000240025012961
:100A50000DD1106809F050F80500072D04D3964910
:100A6000300008F04FFB5DE0012D00DDAD1E4C486D
:100A7000039002F0C9FF9148CA2189004D434019F3
:100A80008F4947188D480C21405E002847DD0294AD
:100A90008C4C386807F09AFF0090019122001421D5
:100AA00004A809F06BFB002809DD04AC05002178DF
:100AB0003000326892689047641C6D1EF7D1202187
:100AC00030003268926890477E4C786807F07EFF6D
:100AD000009001912200142104A809F04FFB002886
:100AE00009DD04AC05002178300032689268904737
:100AF000641C6D1EF7D10D2130003268926890475A
:100B00000A2130003268926890470298401C029097
:100B100008376A4802990C22805E8142B8DB03984C
:100B200002F0C1FF09B0F0BD70130108040A01080A
:100B3000240A01086C260020F0B581B00700584C4B
:100B4000012903D1106808F0D7FFA0870320E087B0
:100B500000E030BF3E20205E0028FAD160203C211A
:100B6000615E012901D0022900D1302000240090CB
:100B700050486100451810265449288882B2380030
:100B800008F0C0FA641CAD1C761EF5D150A13800E7
:100B900008F0B8FA00988442EADB01B0F0BD00002A
:100BA0009C220020BC0700004C0A01086C0A0108C6
:100BB000F0B583B006004448029002F025FFA0245F
:100BC0006400444D01950094F02322000021002090
:100BD00009F0A6FD2800250004002088010A300045
:100BE0003268926890472188C9B2300032689268B2
:100BF0009047A41C6D1EF0D1EF27A0256D00354C49
:100C00002100280009F0B7FD2088010A3000326871
:100C1000926890472188C9B2300032689268904744
:100C2000A41C6D1EF0D17F1EE7D1029802F03BFF9D
:100C300003B0F0BD3C0A0108C0250020800A01086D
:100C4000B00A0108D00A0108F80A0108000B0108DF
:100C500030B581B0040001291AD115681EA1280001
:100C600008F04FF8002801D11C480EE01C4928006C
:100C700008F047F8002801D11A4806E01A49280070
:100C800008F03FF8002803D118480549086503E03B
:100C90002000174908F036FA01B030BDC00A01083B
:100CA00000040020C42F0020140B0108C0240020E1
:100CB0002025002044310020380B0108800A002044
:100CC000CC110000500B01089C220020580B010899
:100CD0000D0A0000C42700207265660077A0000896
:100CE000600B010843A00008680B0108BD9F0008C5
:100CF000700B0108F0B591B005000F00042F03D070
:100D0000052F01D0A9493FE01600306808F0F4FE35
:100D10000890706808F0F0FE0590B06808F0ECFEEE
:100D20000790F06808F0E8FE040001200690052F07
:100D300003D1306908F0E0FE06900898022801D33C
:100D40009B4920E005989B49884213DB0646F7172C
:100D50000798C1172200E31709F0DAFE80197941DC
:100D600095A20CCA12184B41954800218B4201D81C
:100D7000824201D3B74906E00698401EFA21890055
:100D8000884204D3B449280008F0BCF9ADE0B34868
:100D90000A9002F039FE80208001B1490880642069
:100DA00007F025FD012C00DA9CE004950994069FCC
:100DB000089D0598FFF732FD0400022C01DC032496
:100DC00002E0082C00DD08242D0602D102F0F4FC1C
:100DD00001E002F044FD4648C4873E2100E030BFF8
:100DE0004348405E0028FAD100250295039500246F
:100DF00038041DD0BFB23E0000973D490120C8878E
:100E000000E030BF3E20085E0028FAD102A8096D3C
:100E10008847009801281CD00299280002F01DFB89
:100E200005000399200002F018FB0400761EE4D1AF
:100E3000BFB2012F0DDD380007F0ACFD0600280021
:100E4000310007F03DFD02902000310007F038FD31
:100E50000390844F029807F0B9FD009001913A0089
:100E600014210BA809F08AF901280BDB0BAC049EB6
:100E7000050021783000326892689047641C6D1E2E
:100E8000F7D1049609210498026892689047039864
:100E900007F09CFD009001913A0014210BA809F085
:100EA0006DF901280BDB0BAC049E050021783000A6
:100EB000326892689047641C6D1EF7D104960D212C
:100EC00004980268926890470A2104980268926820
:100ED000904705980799401805900998401E099079
:100EE00000D064E70A9802F0DEFD11B0F0BD00000A
:100EF00000040020F1B582B00D00C44C0C20265E29
:100F0000022D03D0032D01D0C14920E0170038681D
:100F100008F0F2FD0190786808F0EEFD009001986D
:100F2000002805D00098002802D00199884201DAF3
:100F3000C4490CE0032D0ED1B86808F0DDFD06B2FF
:100F4000002E03DD0C20205EB04204DABE49029878
:100F500008F0D8F828E0BD4D00206870C848271870
:100F6000380002F051FD32000099019800F07CF841
:100F700044202856002807D0E089C00504D5C14880
:100F80000021405E00F068FF0120A870380002F0E8
:100F90008AFD02202856002806D0642007F027FC8E
:100FA000022028560028F8D103B0F0BD940B0108A8
:100FB000E00B010810270000F0D8FFFFFFFFFFFF44
:100FC000F1076859F0B481B09049AF480A1804237A
:100FD0000120C0431056002836D0921C1668921E7D
:100FE0000869864203D20020108008690FE00C20B7
:100FF0000D5E08000C30AC00005986420BD3681E11
:10100000108008000C300C240C5FA4000059921CC6
:101010001060921E18E000200C0010346D1E01E0DC
:10102000401C241DA8420FDA2768BE42F8D3676827
:10103000BE42F5D284000C19256964692C19640834
:10104000A64200D3401C108008325B1EC0D101B004
:10105000F0BC7047FC0B0108200C01089C2200200A
:101060001A080048500B0108F0B589B00300C81AEF
:10107000019000250020002104AC03C410007CD0A6
:101080000392824C9607B60F06AF501EC11703C7D6
:10109000002E1FD00293019F0299009104A803C85B
:1010A00006AA0CCA09F04DFD0099081820606D1CB5
:1010B00004A8844603C8009001910021009A019B76
:1010C000B8185941624603C2761E241D002EE3D192
:1010D000029B0197039881084FD0200002932C00B7
:1010E00004AAC0CA0391050002990091300039009A
:1010F00006AA0CCA09F025FD009908182860019875
:1011000000218019794106000F00029900913900F1
:1011100006AA0CCA09F015FD009908186860019824
:1011200000218019794106000F00029900913900D1
:1011300006AA0CCA09F005FD00990818A8600198D4
:1011400000218019794106000F00029900913900B1
:1011500006AA0CCA09F0F5FC00990818E860241DDD
:10116000019800218019794106000F000398401E64
:10117000039010350028B7D1250024490C20085EC3
:10118000854224D200200A001032AB00D0506D1CE2
:101190000C228A5E95421AD20A001032AB00D0505F
:1011A0006D1C0C228A5E954211D20A001032AB00EF
:1011B000D0506D1C0C228A5E954208D20A00103273
:1011C000AB00D0506D1C0C20085E8542DAD309B00C
:1011D000F0BD00B581B00D4A53689168012901DB6B
:1011E000180005E04842C10F08184110581A591854
:1011F0000C23D25EFFF738FF032095490870FFF7F4
:10120000E1FE04F035FE01B000BD0000800A0020C0
:101210003C0C01088F488268012A00DB704710B43B
:10122000416853428C4A546D844202D0506500227A
:10123000C281DA0FD21852108B1A4360891881606C
:1012400010BC70476C0C01088C0C010800040020D5
:1012500080488268012A00DA704710B441687E4BEA
:101260005C6D844202D058650023C3818B18DC0F6B
:10127000E3185B104360891A816010BC704700005E
:101280001C180000543A0020A2110000900A00200F
:10129000F0B581B00C006F4DEF896F4E002806D07D
:1012A000022830D019D304287CD057D38EE0706D3B
:1012B000A84202D075650020E881FFF7ABFF9D488A
:1012C000844202DB9C48844200DD04006C60A86814
:1012D000A04200DA2000A86076E0706DA84202D03B
:1012E00075650020E881FFF795FF9348844202DC92
:1012F0009048844200DA0400AC606868844200DDF3
:1013000004006C6060E0706DA84202D0756500203A
:10131000E881FFF79DFF874887498C4201DD0C007B
:1013200002E0844200DA04006C602246AC6863424A
:10133000DC0FE4186410141B844204DA944810187B
:1013400043005842A860D80FC018401010188842B7
:101350003ADD881A40004142A96035E0706DA8422C
:1013600002D075650020E881FFF772FF894884424A
:1013700001DD040002E0002C00D500246242AA60D6
:1013800068685142CA0F511849106A4A431A934279
:1013900001DA88186860684A4018904214DD501AD3
:1013A000686011E0706DA84202D075650020E88188
:1013B000FFF74EFF6048844202DC5E48844200DA58
:1013C00004006C600020A860FFF703FF4420305643
:1013D000002806D0F80504D56F480021405E00F0D3
:1013E0003BFD01B0F0BD81B001001A4A90680028B1
:1013F00010D4002926D0022906D026D3042903D0F0
:1014000022D25168401A20E051680818C10F08180C
:1014100040101AE0002906D0022913D009D304296C
:1014200010D00CD310E05168C20F101840100818EB
:101430000BE05168C20F10184010081A05E0414235
:10144000080002E0506800E0002001B07047000092
:1014500054230020800A002000040020F0B581B051
:1014600007000C000AD1B7480C21415E0091836847
:101470004268B549380007F045FE58E0042C4EDAC2
:101480001500012C36DD2E68B049300007F039FC1C
:10149000002805D1686808F02FFB010000203BE020
:1014A000AB49300007F02DFC002830D0A9493000AE
:1014B00007F027FC002805D1686808F01DFB010033
:1014C000022029E0A449300007F01BFC002805D1C8
:1014D000686808F011FB010003201DE09FA13000A7
:1014E00007F00FFC002807D1686808F005FB010031
:1014F000042011E0002C1ADD286808F0FDFA00280D
:101500000DD001000020FFF7C3FE012C0FDD68683D
:1015100008F0F2FA01000120FFF7BAFE07E0C04927
:10152000380007F0EFFDC649380007F0EBFD01B0C9
:10153000F0BD000010270000002F685930B481B0C2
:10154000804B0C241B5F012B1FDBBC4C646DCA2538
:10155000AD0068432018D224640004199807800F56
:1015600005D021606260401E08340028F9D1980837
:101570000BD021606260A160E26021616261A161C3
:10158000E261401E20340028F3D101B030BC704726
:10159000F0D8FFFFF0076859543A0020F0B587B043
:1015A0000020A049A54A526DD2235B00D418654A99
:1015B0000C23D25E002A00DCBBE00390029102986B
:1015C000006809F0F3FA98A20CCA07F0A7FA98A2EB
:1015D0000CCA07F0A3FA0022974B07F09FFA07F016
:1015E0005FFB0500290001F0E0FE0700FE208005FA
:1015F000390001F032FF0600FE208005390001F0BD
:1016000064FF310007F05CF906908020C0052900D6
:1016100001F0CBFE310007F053F904902768CA208F
:1016200080002058390001F050FF050060680090EC
:10163000CA20800020184068009901F046FF019000
:10164000CA20C00026183068390001F03EFF0700AC
:101650007068009901F039FF06000698290001F032
:10166000A4FE390001F0F9FE00900199049801F000
:101670009CFE0100009801F028FF05900199069852
:1016800001F093FE310001F0E8FE0090049829007B
:1016900001F08BFE009901F0E0FE04902800390073
:1016A00001F013FF05000198310001F00EFF060064
:1016B0002800290001F079FE07003000310001F018
:1016C00074FE390001F0C9FE07000598290001F0F9
:1016D0006CFE00900498310001F067FE009901F063
:1016E000BCFE390007F0ECF8CA218900605004986C
:1016F000290001F05AFE05000598310001F055FE61
:101700000100280001F0E1FE390007F0D9F8CA21F4
:101710008900611848600398401C039008340298BF
:10172000001D0290074803990C22805E814200DA76
:1017300045E70448C189BF4A0A4020211143C181BD
:1017400007B0F0BD800A0020AC0C0108B80C0108FD
:10175000C00C0108C80C0108D00C01086377000018
:10176000F0B585B0B4490C228D5E002D4EDD3349B5
:10177000496DD22252008C180490CA20C00026184D
:101780003068216801F0A1FE03907068616801F083
:101790009CFE0290CA2080002018016840680190D9
:1017A0000498002807DD802000064140019880222F
:1017B000120650400190FE20800501F04EFE009080
:1017C0000146039801F0F1FD07000199029801F02C
:1017D000ECFD0100380001F078FE07000099029846
:1017E00001F0E3FD00900199039801F0DEFD0099FE
:1017F00001F033FE0499002903D5802109064F40EA
:1018000048403760706008346D1EB6D18A48C1897F
:10181000C34A0A4040211143C18105B0F0BD000018
:10182000D80C0108900A0020A7E8482EFF21194093
:1018300000000060C2252C3D00004940000400204B
:10184000000D0108F0B587B0C000B649496D091810
:101850000191D22252008D18774908180690B2499A
:10186000401805900068296801F02FFE04000598D3
:101870004068696801F029FE05000198AB494018ED
:10188000039040680490039806680198A849471897
:101890002000310001F089FD0100386801F0DDFD14
:1018A00000900498290001F080FD0100009801F0EB
:1018B0000CFE02900498210001F077FD796801F098
:1018C000CCFD07002800310001F06FFD390001F068
:1018D000C4FD06000299084601F067FD07003000CC
:1018E000310001F062FD390001F0B7FD07000298F8
:1018F000210001F05AFD00902800310001F055FD53
:10190000009901F0AAFD390006F0DAFF0490029870
:10191000290001F04AFD05002000310001F045FDDD
:101920000100280001F0D1FD390006F0C9FF0600D2
:101930000498059908600698AE4946500198AE494A
:1019400045180698AD49401802900068296801F0D2
:10195000BCFD040002984068696801F0B6FD05000E
:10196000039840680590039807680598310001F0D6
:101970001CFD00900498390001F017FD010000984B
:1019800001F0A3FD0100FE20800501F066FD03903B
:101990000599049801F009FD00903800310001F02C
:1019A00004FD0100009801F058FD070080200006AA
:1019B000474001989849401801900399006801F048
:1019C000F4FC060001984068390001F0EEFC0100CB
:1019D000300001F07AFD060003990198406801F09B
:1019E000E4FC009039000198006801F0DEFC0099E9
:1019F00001F033FD07002000310001F0D6FC00901B
:101A00002800390001F0D1FC0100009801F05DFDD3
:101A1000029908602800310001F0C7FC0500200091
:101A2000390001F0C2FC290001F017FD029948605D
:101A300007B0F0BDFDFF0000800A0020F0B583B0C4
:101A400005006F4C6F48205806F0C0FF6EA20CCA0C
:101A500007F064F806000F00A8002018006909F0DC
:101A6000A5F832003B0007F059F869A20CCA07F04C
:101A700055F807F015F906F0A9FF06000F0009F068
:101A8000CCFA07F00DF901903000390009F0C0FAE6
:101A900007F006F90600E800241823482558201806
:101AA00047682800310001F080FC0090019839005F
:101AB00001F07BFC0100009801F007FD1A4960501D
:101AC0003800310001F071FC07000198290001F095
:101AD0006CFC390001F0C1FC4649605047482418AD
:101AE000256867682800310001F05FFC00900198CC
:101AF000390001F05AFC0100009801F0E6FC20607A
:101B00003800310001F051FC06000198290001F075
:101B10004CFC310001F0A1FC606003B0F0BD00009E
:101B2000FBFF000000040020CC110000CC040000EA
:101B3000F4070000F0B581B0314DBC4C616DA94295
:101B400002D065650021E9810700B9482E183000F0
:101B500001F05AFF002F06D0022F1DD00FD3042F03
:101B600032D026D33DE0E88901210143E981CA2230
:101B70009200B0482918606DD2235B002EE0E889FE
:101B8000AD49014002200843E881CA229200A948D9
:101B90002918606DA94B21E0E889A949014004207A
:101BA0000843E881CA229200A2482918606DA54B1B
:101BB00014E0E88908210143E981CA2292000F4814
:101BC0002918606D144B09E0E88910210143E9816F
:101BD000CA22920009482918606D074BC01806F008
:101BE00023FF300001F05FFF208F04210143218794
:101BF00001B0F0BDD0110000440E0000F41400004C
:101C0000800A00206C110000182D4454FB2119405B
:101C100011EA2D819997713D1C0B0000F0B583B03E
:101C20008248406D88498842084604D07F4948650B
:101C30000021C18102E0807BC00704D40022002182
:101C40000020FFF77BFC8048C0890621014006295F
:101C500002D1FFF7A3FC1EE0810710D57348406D49
:101C6000CA22920075494118764BC01806F0DCFE76
:101C7000002200210120FFF761FC01200DE0400758
:101C80000ED5002200210120FFF758FC6E48C189C3
:101C90006E4A0A40C2810020C043FFF761FD0AE09E
:101CA0000022FE2189050220FFF748FC00220021C6
:101CB0000120FFF743FC6448807BC00604D4002267
:101CC00000210420FFF73AFC68465F49C989018179
:101CD000080700D497E05C480C21405E002800DC37
:101CE00088E001905148406D594945180198C00756
:101CF00028D5CA2080002C182868216801F0E5FB4F
:101D000006006868616801F0E0FB07003000310000
:101D100001F04BFB04003800390001F046FB0100E4
:101D2000200001F09AFB04003000210006F0C8FDFD
:101D300028603800210006F0C3FD802109064840D4
:101D4000686008350198400854D02C000190CA20E2
:101D5000800025182068296801F0B7FB060060683C
:101D6000696801F0B2FB07003000310001F01DFB93
:101D700000903800390001F018FB0100009801F0D4
:101D80006CFB00903000009906F09AFD206038004E
:101D9000009906F095FD8021090648406060A06822
:101DA000A96801F092FB0600E068E96801F08DFB8C
:101DB00005003000310001F0F8FA07002800290082
:101DC00001F0F3FA0100380001F047FB0700300092
:101DD000390006F075FDA0602800390006F070FD9E
:101DE000802109064840E0600198401E01901034AF
:101DF0000028ACD16846008916490140802008437C
:101E00001149C88105E00022FE2189050320FFF762
:101E100095FB0D48C189802252000A43C2810348C4
:101E2000018F04220A43028703B0F0BD00040020A2
:101E30001C180000CC110000DFFE0000CC040000E4
:101E4000BFFE0000F4070000800A0020FBFF000036
:101E50001C0B0000F7FF0000F0B589B007F0DAFFB7
:101E6000002800D1BFE10022E049E14B5B6D8B42CD
:101E700002D0DF4B5965CA810024DE4BDC49496D35
:101E80000791D2256D004D19D221490041180091CA
:101E900001002800D54D0C26AD5FAC4200DB91E17E
:101EA0001D680E69B54200D38CE1009D2D68056068
:101EB000009D6D684560CA25AD004519CE4E8E194E
:101EC00037682F6076686E60CA25ED004519CB4EE5
:101ED0008E1937682F6076686E60C94D4519C94EF6
:101EE0008E1937682F6076686E60CA252D014519F6
:101EF000C54E8E1937682F6076686E60641C083096
:101F00001B1DC7E7B9480C21405E401E854200D129
:101F1000F0E0641C0498083004900698001D0690B8
:101F2000B2480C21405E844200DBE3E00699096878
:101F3000019A1032AB00D218401E01E06D1C121D38
:101F40008542DFDA13689942F8D353689942F5D293
:101F500003910198A9004018466907690398C01BBE
:101F600006F018FD0090F01B06F014FD010000982B
:101F700006F0A6FC02909E48006BB8428941C90F4A
:101F8000B0429241D20F914207D00399884202D2C7
:101F9000FE20800500E000200290FE2080050299CE
:101FA00001F093FA03900198E90040180590D221BE
:101FB000490046183068039901F0F7F90700B16845
:101FC000029801F0F2F9390001F047FA049908602B
:101FD0007068039901F0E9F90700F068029901F0CF
:101FE000E4F9390001F039FA04994860059882490A
:101FF00046180498CA21890047183168039801F0EF
:10200000D4F90090B168029801F0CFF9009901F07D
:1020100024FA38607168039801F0C7F90090F168FC
:10202000029801F0C2F9009901F017FA786005985A
:10203000724946180498CA21C900471831680398A4
:1020400001F0B3F90090B168029801F0AEF900997F
:1020500001F003FA38607168039801F0A6F9009066
:10206000F168029801F0A1F9009901F0F6F97860A1
:1020700005986449461804986149471831680398DF
:1020800001F093F90090B168029801F08EF900997F
:1020900001F0E3F938607168039801F086F9009067
:1020A000F168029801F081F9009901F0D6F97860A1
:1020B0000598554946180498CA21090147183168FE
:1020C000039801F072F90090B168029801F06DF97F
:1020D000009901F0C2F938607168039801F065F960
:1020E0000090F168029801F060F9009901F0B5F9EB
:1020F000786007E73D480C21425E94426ADA07990E
:10210000E300C918D2235B00CB18019DD200AA18A6
:10211000CE256D0052591A60019A0C25455FED00DD
:102120005219D0256D0052595A60334A8A18019BC2
:102130000C25455FED005B19344D5B591360019B25
:102140000C25455FED005B199925ED005B59536047
:102150002A4A8A18019B0C25455FED005B192C4D1E
:102160005B591360019B0C25455FED005B19FE2553
:10217000ED005B595360234A8A18019B0C25455F8B
:10218000ED005B19234D5B591360019B0C25455FE6
:10219000ED005B19204D5B5953601B4A8918019A69
:1021A0000C23C35EDB00D2181C4BD2580A60019A84
:1021B0000C23C05EC0001018E42212018058486051
:1021C000641C97E70B4BA5005B1901910025069352
:1021D0000490A5E601980549CA89C089C0239B00DF
:1021E00003431343CB8109B0F0BD00BF800A002038
:1021F00000040020900A0020CC040000F407000036
:10220000780900001C0B0000440E0000C40400000C
:10221000EC070000140B0000180B00003C0E00003F
:10222000F1B58CB00F00140002A8AE49242206F0CC
:10223000FBFBBA4E002F14D1002502ACF08901211E
:10224000A940084204D0B6A122680C9806F05AFFB3
:102250006D1C241D092DF1DB0C98B2A106F052FF74
:1022600028E000942568A04CA049280006F049FD0C
:10227000002821D1606DB04202D066650020F08157
:10228000A9483518280001F0BFFBF089012101435E
:10229000F181CA229200A5483118606DD2235B00FB
:1022A000C01806F0C1FB280001F0FDFB208F0421BF
:1022B000014321870DB0F0BD9D49280006F021FDA6
:1022C000002817D1606DB04202D066650020F08111
:1022D00095483518280001F097FBF0899549014091
:1022E00002200843F081CA22920090483118606DA4
:1022F000A54BD5E7A549280006F003FD002821D10C
:10230000606DB04202D066650020F08186483718C3
:10231000380001F079FB0425F089A449014004202C
:102320000843F081CA22920080483118606DA04BAA
:10233000C01806F079FB380001F0B5FB208F05438B
:102340002587B7E79B49280006F0DBFC002815D15C
:10235000606DB04202D066650020F0817248351889
:10236000280001F051FBF08908210143F181CA22C4
:10237000920091483118606D904B91E79049280088
:1023800006F0BFFC002815D1606DB04202D0666532
:102390000020F08164483518280001F035FBF089F1
:1023A00010210143F181CA22920083483118606DE7
:1023B000A94B75E7A949280006F0A3FC002802D123
:1023C000FFF72CFC76E7A6A1280006F09AFC00286F
:1023D00005D1F089802149000143F18166E7A1A17F
:1023E000280006F08EFC002804D1F0899E490140A7
:1023F000F1815BE7AC49280006F083FC002801D19D
:10240000F08153E7A949280006F07BFC002857D14A
:10241000606DD22149004618A54D706806F0D6FAC5
:1024200000900191306806F0D1FA02000B002900FB
:102430000C9806F067FE606D53494618706806F008
:10244000C5FA00900191306806F0C0FA02000B0056
:1024500029000C9806F056FE606D554946187068C4
:1024600006F0B4FA00900191306806F0AFFA02006D
:102470000B0029000C9806F045FE606D4F49461888
:10248000706806F0A3FA00900191306806F09EFA99
:1024900002000B0029000C9806F034FE606D6E49B6
:1024A0004418606806F092FA00900191206806F0E6
:1024B0008DFA02000B0029000C9806F023FEF9E6C5
:1024C00095A1280006F01DFC002808D1012F03DD8E
:1024D0000098406807F010FBFFF7BEFCE6E68F4966
:1024E0000C98BBE69413010800040020300D01088D
:1024F00010B5040001290CD1106807F0FDFA052879
:1025000007D207F0CFFB8648018F04220A430287D7
:1025100010BDBE49200006F0F5FD10BD800A002068
:10252000257320000D0A00001C180000CC110000CB
:10253000380D0108DFFE000070B5040001291DD12F
:10254000106807F0D9FA0500052D17D2744C002049
:102550006070744E300001F057FA280007F016FC46
:10256000002805D1FEF735FE208F04210143218785
:10257000300001F098FA0120607070BD2000A4497D
:1025800006F0C0FD70BD0000CC040000400D010845
:10259000A049A14A43001818800010189F4A805C87
:1025A000420010188000085870470000BFFE00006D
:1025B000F4070000480D0108F41400001C0B000093
:1025C000500D0108F0B581B0032901D1012405E0C7
:1025D0000429FBD0002300240B2900D0012300256F
:1025E0008D4E47003818800030188D4FC719F87885
:1025F000A04201D0FC7001253878984201D03B7090
:102600000125787888420BD0797082484A005118A9
:1026100089004018808806F0BDF9B860002C01D10F
:10262000002D05D07F48301804F06EFA04F090F9C0
:1026300001B0F0BD784A43001818800010187A4A9B
:10264000801802788A4200D1704700B581B00170CD
:1026500004F07EF901B000BD440E00006C0D0108CD
:102660006F6E00006F666600FFFE000010B502008E
:102670000800694953009A1892008C186549674A06
:10268000A25C53009A1892008918896806F018F91C
:102690000200664823181868110000F06FFF02D08E
:1026A0001A6004F055F910BD8C080108C80801082B
:1026B000740D010800B581B0574942001018800020
:1026C00009185A480858534A544BC95C4B005918CA
:1026D00089005118896800F068FE01B000BD00B59E
:1026E00081B00A004C49430018188000081850496E
:1026F00043181868110000F041FF02D01A6004F07E
:1027000027F901B000BD44494200101880000818A4
:102710004749405870470000696E00007C0D010871
:10272000000400209C220020F0B581B004000020AD
:10273000009020782D2802D10120009001E02B2864
:1027400000D1641C200007F0D7F906F033F905002A
:10275000207830380A2804D2641C207830380A28BF
:10276000FAD320782E2818D1FE27BF050FE03800B5
:10277000304906F0A5F80700303E300006F01AF99F
:10278000390000F012FE290000F067FE0500641C0D
:102790002678300030380A28E9D32078652801D01F
:1027A00045282AD1601C07F0A7F90400002C09DD98
:1027B000204E2900300000F0F8FD0100641E002CBE
:1027C000F8DC0D00002C18D528001A4906F078F81E
:1027D0000500641C11D5174906F072F80500641C49
:1027E0000BD5144906F06CF80500641C05D5114999
:1027F00006F066F80500641CE6D40098002802D0B4
:10280000802000064540280001B0F0BDBC0D010845
:10281000C80D0108B8130108800A002071110000DA
:1028200070110000CC110000721100007411000042
:102830007811000000002041F1B588B00E0000D0F2
:102840008EE0BC4EBC4DBD4FBD483C1820780028E2
:102850001FD060784100081880000690A06806F03C
:10286000B5F804900591616828000830069A8058F0
:1028700000F09BFD06F0AAF802900391A07880007A
:102880003058009006982B580022B749089806F057
:1028900039FC207B00281FD0607B41000818800095
:1028A0000690606906F092F804900591216928006D
:1028B0000830069A805800F078FD06F087F80290FC
:1028C0000391A07B80003058009006982B5801227D
:1028D000A549089806F016FC207E00281FD0607ECF
:1028E0004100081880000690206A06F06FF80490F6
:1028F0000591E16928000830069A805800F055FDDE
:1029000006F064F802900391A07E80003058009099
:1029100006982B5802229449089806F0F3FBA24827
:102920003C182078002800D102E1607841000F189F
:10293000BF00A06806F04AF804900591616828007D
:102940000830C05900F031FD06F040F802900391C4
:10295000A078800030580090EB59032282493CE077
:1029600015002C6891A1200006F0CBF9002817D1A2
:10297000022E15DB8EA1686806F0C3F900280FD17E
:102980000B21FFF71FFE0B210120FFF71BFE0B2180
:102990000220FFF717FE0B210320FFF713FEC7E00D
:1029A000200007F0A9F80400042C00D3B8E0012EA1
:1029B00017D1624861000919890040185D497D4AB4
:1029C000825C9200895800915B497B4A805C42009E
:1029D000101880000B5822007849089806F092FBE6
:1029E000A6E0022E0ADB6F687549380006F089F907
:1029F000002817D100212000FFF7E4FD032E00DAA4
:102A000096E0A86807F078F8002802D0012800D0E6
:102A100086E04A496200121992008918664A8918AC
:102A2000487085E06749380006F06BF9002801D14D
:102A30000121E0E76449380006F063F9002801D17C
:102A40000421D8E76149380006F05BF9002801D17C
:102A50000321D0E75E49380006F053F9002801D180
:102A60000221C8E75B49380006F04BF900282DD059
:102A7000B0A1380006F045F9002801D10621BAE7D7
:102A8000AD49380006F03DF9002801D10721B2E731
:102A9000AA49380006F035F9002801D10821AAE733
:102AA000A7A1380006F02DF9002801D10921A2E7DD
:102AB000A4A1380006F025F9002801D10A219AE7DF
:102AC0004449380006F01DF9002801D1052192E79C
:102AD00037A1380006F015F9002801D10B218AE74B
:102AE0009949380006F00DF9002809D1032E07DBBB
:102AF000A868FFF719FE01002000FFF7B7FD17E0F7
:102B0000AE49380006F0FDF8002809D1032E07DB96
:102B1000A868FFF709FE01002000FFF7E0FD07E0CD
:102B2000AF49089806F0EEFABC49089806F0EAFAB0
:102B300009B0F0BD3C140108B8130108800A002058
:102B40007011000000B581B00200B54B186811008B
:102B500000F014FD02D01A6003F0FAFE01B000BDCF
:102B6000AF48006870470000D80D010810B5002973
:102B70000BD10400AA48006805F028FF02000B00F2
:102B8000A849200006F0BEFA10BD0CDD1068FFF762
:102B9000CBFD0200A24B1868110000F0EFFC02D040
:102BA0001A6003F0D5FE10BD94110000616C6C003A
:102BB0006F6666007211000071110000EC0D0108D3
:102BC000F80D0108000E0108080E0108100E01089A
:102BD000180E0108200E0108F1B584B00E00924FC6
:102BE0008D2040013C18002E35D1904D00202056FC
:102BF000002808D0606800900220235E012229008E
:102C0000049806F07FFA08202056002808D0E068D3
:102C100000900A20235E02222900049806F072FA2E
:102C200010202056002808D0606900901220235EF2
:102C300003222900049806F065FA1820205600287F
:102C400075D0E06900901A20235E042229000498C0
:102C500006F058FA6BE00192156875A1280006F09D
:102C600050F8002808D10020C043206200202070C6
:102C700020722074207636E0280006F03DFF451EC5
:102C8000042D04D3A249049806F03CFA4FE0012E2B
:102C900012D1E80038188D2149014718A94EF06C6F
:102CA000009002203B5E6A1C6049049806F02AFAF4
:102CB00025620120387036E039DDE80038188D21B2
:102CC00049014018009001984068029058A106F010
:102CD00018F800280DD100990870206AA84202D186
:102CE0000020C04320629748018F08220A430287D0
:102CF0001DE0944EADA1029806F003F8002803D120
:102D00000120009908700DE00120009908700198D9
:102D1000406806F0F1FE009A508080003818006983
:102D2000009948602562308F08210143318705B042
:102D3000F0BD000073777200280E0108300E010804
:102D40007200000078000000380E0108F0B581B074
:102D50000500974F380000F057FE9649280006F00E
:102D6000D1F901F00FF89449280006F0CBF9934906
:102D7000280006F0C7F992A6724C2420225E31008A
:102D8000280006F0BFF92620225E3100280006F058
:102D9000B9F92820225E3100280006F0B3F92A2074
:102DA000225E3100280006F0ADF986A1280006F069
:102DB000A9F9380000F077FE01B0F0BD400E01081F
:102DC00030B581B00C007A4D280000F01DFE01F0F6
:102DD000A1F8002CFBD1280000F065FE01B030BD49
:102DE000480E0108F0B581B000250F4E34001034B4
:102DF000C64F0C21715E00290DDD00902268002A6B
:102E000003D03900009806F07DF96D1C241D0C20BC
:102E1000305E8542F2DB01B0F0BD00009C0E01087F
:102E2000EC1B0020C80E0108800A0020AC0C010831
:102E30006F666600F1B5002964D067DDB44C1600FA
:102E40000F00356859A1280005F05BFF002805D167
:102E50002178C80752D4012008430AE0B2A1280013
:102E600005F04FFF00280BD12178C80746D5FE207A
:102E700008402070022033490A8F104308873DE044
:102E8000AA49280005F03DFF002803D1022021783F
:102E9000F92230E0A649280005F033FF002805D1CB
:102EA0002078F92101400420084326E0A1492800A8
:102EB00005F027FF002802D12078F9210FE09E4974
:102EC000280005F01EFF002801D1082011E09B49D1
:102ED000280005F016FF002804D12078E7210140E2
:102EE00021700BE09649280005F00BFF002809D15E
:102EF00010202178E7220A4010432070361D7F1EE3
:102F00009FD103E000988F4906F0FCF801B0F0BDB6
:102F1000D00E010870B582B0FA25ED00CA4C022926
:102F20000EDB0600694601A801F0B0F8009B019A8B
:102F30002100300006F0E6F8280005F058FCF1E723
:102F400002B070BD00040020F0B581B00C00002577
:102F5000012C05D0022C03D0BC4906F0D3F80EE0BA
:102F60001600306806F0C8FD0700022C03D1706817
:102F700006F0C2FD05003900280000F0C7FC01B0D2
:102F8000F0BD00B581B0012903D0B14906F0BAF80F
:102F900009E0106806F0B0FD002802D000F05FFCE8
:102FA00001E000F009FC01B000BD00006F6E000000
:102FB0009C220020EC0E0108180F0108200F0108C8
:102FC000256420000D0A0000F0B581B00400002740
:102FD000002500209F4E310018220023CB5EC01830
:102FE0000223CB5EEB1804254D5F401906254D5F8B
:102FF0005B1908254D5F40190A254D5F5B190C25AB
:103000004D5F40190E254D5F5D191031521EE4D100
:10301000602100F070F900902800602100F06BF949
:103020000500002031002022009E0023CB5E9B1B68
:1030300084461800584363461B180220085E401B54
:10304000BC46070047436046C7190420085E801B42
:103050009C46030043436046C3180620085E401B9D
:10306000BC46070047436046C7190820085E801B1E
:103070009C46030043436046C0180A23CB5E5B1B9B
:10308000BC461F005F436346DF190C31521ECCD192
:103090000094714C602100F02EF905F08BFC07F0D4
:1030A000C1FF07F0F3FFA0803800602100F023F992
:1030B00005F080FC07F0B6FF07F0E8FFE08026810E
:1030C00065810A20235E0820225E6449009806F08C
:1030D00019F80620235E0420225E6149009806F05C
:1030E00011F8E2685F49009806F00CF85E48026843
:1030F0005E49009806F006F801B0F0BD00B581B059
:103100005B4A5C4905F0FEFF01B000BD340F0108C9
:10311000441C002000B581B04F493A228A5E5649CE
:1031200005F0F0FF01B000BD6F6666003C0F0108BE
:10313000440F01084C0F0108580F0108600F0108E7
:10314000680F0108700F0108F0B583B007F0BCFFED
:1031500007F0E0FF494800F051FC4949494808F0B0
:1031600068F806F027F8484E300008F063F9474C3D
:103170002100300008F080F9454D2868454901409C
:103180002960FA20800005F032FB4349206808F0EE
:103190006DFB2868E90B0143296007F059F805F039
:1031A000F7F906F051FD2C4CA08A40216052210015
:1031B00040313A4806F0EEFCFEF70BF82C20205682
:1031C000002801D406F0E2FD05F0D2F900F001FA82
:1031D00008F006FD324D280008F008FD31492800AE
:1031E00008F009FD280008F010FD02F03BFD08F092
:1031F00045FE002000902C4B8022D0218900200029
:10320000583005F05DFAE620800020180290BE20BC
:10321000400030180190254FB826B600244D254CAB
:103220000198006800680078042808D100942B00F9
:1032300081223100029805F043FA05F0C0FA380007
:1032400005F0D5FAECE70000C00F0108D00F010827
:10325000FC0F0108C42F00200004002018100108F2
:103260002C1001083C1001087023002054100108A4
:103270004414010860100108681001089C22002015
:103280007415010808260020A0380020E82A01084B
:10329000585C0040FF7FFFFFD82A0108C0250020AE
:1032A000402600207C13010883020008102700003C
:1032B0001DBC00086C15010800B581B0EFF3098052
:1032C00000F002F801B000BDFEE7F446002804D487
:1032D000494200F013F8404260474042002905D4BB
:1032E0005FD000F00BF8404249426047494200F08D
:1032F00005F84942604703460B43E6D40022030A1F
:103300008B420BD203098B4219D243088B422ED237
:10331000411A00D20146524110467047FF2209026D
:103320003FD012068B4205D3121209028B4201D301
:103330001212090203098B4219D300E0090AC309DA
:103340008B4201D3CB01C01A524183098B4201D376
:103350008B01C01A524143098B4201D34B01C01A61
:10336000524103098B4201D30B01C01A5241C308D9
:103370008B4201D3CB00C01A524183088B4201D348
:103380008B00C01A524143088B4201D34B00C01A34
:103390005241884200D3401A5241CFD201461046D2
:1033A000704708B5C046C04608BD30B405004D4062
:1033B0000122D20715404B180418240E2ED01B0EE4
:1033C00032D0FF2C34D0FF2B3AD0E418000209028F
:1033D00010431143000A090A9446C2B24A43000A44
:1033E000C3B24B43000A4843110A5B181A43D2B2D6
:1033F000190A091801D44918641E080A7F3C23DB06
:10340000FE2C08DAE4050906114363469941604140
:10341000284330BC7047FF20C005F9E728001B0E89
:10342000FF2BF6D1D043F4E72800FF2CF1D1F9E7C8
:103430004002F7D1FF2B01D14902F3D1E005E7E7C4
:10344000D8054902E4D0EDE743020020641CDFD137
:103450005B129B1CDCD9D805DAE70122D2070300F6
:103460004B402ED4431A01D2C01AC91830B44B189D
:103470000418240E1B0E22D0FF2C20D0E31A182B88
:103480001DDC09021143C40D641E00021043944662
:103490001925ED1A0A00AA40D940451801D36D0834
:1034A000A41CE405D209280A2D062A436546AA4130
:1034B000604103181B0EFF2B01D3C00DC00530BCAB
:1034C0007047514006E05140CCE70122D20703008B
:1034D0004B40F8D4431A03D2C01AC9185040514087
:1034E00030B44B18090211430418240E1B0E40D0AF
:1034F000FF2C3AD025009D410BD31ED8C50D4002AC
:10350000401A0BD3ED050100400AC90591416841FD
:10351000D5E7C50D40024918401AD0D00121400816
:10352000491C0018FCD58C4204D36D1A000AED0525
:103530004019C4E7E8051040C1E7182DBFDCAC1CFA
:103540000D00E140E5414D40012D4941C40D00020F
:103550001043451A01D46D199543641EE405280AE9
:103560002D069541604130BC7047FF2BA7D1D84351
:10357000A5E72442A3D10020A1E7FEE7944602007C
:103580000A43921808D0884206D101221206001878
:10359000D042084600D880426246704730B585B0B8
:1035A000050003A801704270D74C200007F067FEA9
:1035B000FA2080000290002001900090022303AACC
:1035C000A9B2200007F03FFE200007F05FFE05B023
:1035D00030BD70B584B0002200211820FFF7DEFF57
:1035E000012201211820FFF7D9FF432204211820CE
:1035F000FFF7D4FF912205211820FFF7CFFF0A2201
:1036000006211820FFF7CAFF1D2207211820FFF707
:10361000C5FF602208211820FFF7C0FF82220B217E
:103620001820FFF7BBFF87220C211820FFF7B6FFF9
:1036300000220D211820FFF7B1FF80220E21182053
:10364000FFF7ACFF08223C211820FFF7A7FF0C2250
:103650001B211820FFF7A2FF9C221E211820FFF734
:103660009DFFEE2225211820FFF798FF012200215F
:103670001820FFF793FF082201211820FFF78EFF83
:10368000012202211820FFF789FF01227B21182047
:10369000FFF784FF33220A211820FFF77FFF002263
:1036A00000211820FFF77AFF872212211820FFF748
:1036B00075FF822213211820FFF770FF802214214A
:1036C0001820FFF76BFF01223D211820FFF766FF4E
:1036D000012200211820FFF761FF00223D21182060
:1036E000FFF75CFF322247211820FFF757FF012226
:1036F0007B211820FFF752FF102234211820FFF7FA
:103700004DFF102236211820FFF748FF04223721F1
:103710001820FFF743FF042239211820FFF73EFF4E
:1037200000223B211820FFF739FF00223C211820FE
:10373000FFF734FFC820400005F059F8002503A822
:103740000580714C200007F09AFDFA26B60002961B
:1037500001950095022303AA1821200007F073FDAC
:10376000200007F093FD03A851210170C021417092
:10377000200007F084FD029601950095022303AA1C
:103780001821200007F05FFD200007F07FFD03A84F
:10379000522101704570200007F071FD02960195DD
:1037A0000095022303AA1821200007F04CFD2000F9
:1037B00007F06CFD04B070BDF0B585B0002503A81E
:1037C000057001214170504C200007F058FDFA2788
:1037D000BF00029701950095022303AA182120003B
:1037E00007F031FD200007F051FD03A837210170DB
:1037F00004264670200007F042FD029701950095CF
:10380000022303AA1821200007F01DFD200007F065
:103810003DFD03A8392101704670200007F02FFDFF
:10382000029701950095022303AA1821200007F0B2
:103830000AFD200007F02AFD03A80580200007F0FC
:103840001EFD029701950095022303AA182120006E
:1038500007F0F9FC200007F019FD05B0F0BD70B5C8
:1038600084B0002503A8057001214170264C20007A
:1038700007F005FDFA26B600029601950095022391
:1038800003AA1821200007F0DEFC200007F0FEFC50
:1038900003A83721017040214170200007F0EFFCA0
:1038A000029601950095022303AA1821200007F033
:1038B000CAFC200007F0EAFC03A83921017010219E
:1038C0004170200007F0DBFC029601950095022371
:1038D00003AA1821200007F0B6FC200007F0D6FC50
:1038E00003A80580200007F0CAFC02960195009508
:1038F000022303AA1821200007F0A5FC200007F0EE
:10390000C5FC04B070BD000008260020F0B585B0ED
:10391000040001D5002402E05F2C00DD5F240D00CF
:1039200001D5002502E05F2D00DD5F2503A80027FB
:10393000077001214170284E300007F0A0FCFA20EA
:103940008000029001970097022303AA18213000FB
:1039500007F079FC300007F099FC03A83B210170C7
:103960004470300007F08BFCFA2080000290019731
:103970000097022303AA1821300007F064FC3000EE
:1039800007F084FC03A83C2101704570300007F06B
:1039900076FCFA208000029001970097022303AA88
:1039A0001821300007F04FFC300007F06FFC03A82F
:1039B0000780300007F063FCFA2080000290019736
:1039C0000097022303AA1821300007F03CFC3000C6
:1039D00007F05CFC05B0F0BD0826002010B40A001A
:1039E000846812688A4202D09368A342F9D20260C6
:1039F000516841600860506010BC704700604060D2
:103A0000002181600161704700B581B072B600F09D
:103A100003F862B601B000BD70B504003A4885698C
:103A2000A068002837D0A84218D12069401C206126
:103A300070BD026843681A60426803685A60426A4F
:103A400013001B68934202D09E688E42F9D2036035
:103A50005968416008605860406A8068A968826857
:103A60008A420FD281602022825C002A02D0062A7C
:103A7000DFD007E001684268116041680268516068
:103A800008F042FA21002800FFF7A8FF6C62062028
:103A900008F058FA70BD2069401C2061A560286BB1
:103AA000E0602C6370BD30B581B017498A6972B689
:103AB0000169491E016123D1C36813630168814212
:103AC00002D1002181601BE0546B002B09D01D68DE
:103AD0009D4203D0AD68AC4200D22C00DB68002BC5
:103AE000F5D19460012202610A6802605060816031
:103AF0000A6BC2600863080008F006FA08F09EFA34
:103B000062B601B030BD000058240020F0B49848DF
:103B100000680107090F974A53884B400025002091
:103B200072B6954C246862B6042633420DD05768AD
:103B3000E71BC82F09D30E4006D001200026965758
:103B4000002E01D000201570546008252B4209D0AA
:103B50000D4006D05568C835AC4202D30500102090
:103B60002843546002252B4009D00D4006D05368ED
:103B7000C8339C4202D30300202018435460518074
:103B8000F0BC7047F0B482B000210091FA208000B0
:103B900001907A480422774B0F24754D2D682C40F4
:103BA0005D88654072B6744E366862B60027DF578E
:103BB000002F11D1144207D05F68F71B874203D34F
:103BC00001201870042023E0154205D05F68F71B20
:103BD000874201D201201BE0002D04D05C805E6092
:103BE0001970002014E05D68751B8542D4D39D6870
:103BF000751B019FBD42CFD3A00701D56020009067
:103C0000200703D500985022024300929E6000983E
:103C100002B0F0BC704730B581B0594D402202214E
:103C2000280008F0B1FA9024E40540228021200009
:103C300008F0AAFA01220121280008F0A5FA0120C3
:103C4000688301224021200008F09EFA4020208352
:103C5000142004F0CCFD8021AB4802F063F801B0E1
:103C600030BD30B581B0464D40220121280008F01A
:103C70008BFA9024E40540224021200008F084FAC9
:103C800001220221280008F07FFA02202883012265
:103C90008021200008F078FA80206083142004F04E
:103CA000A6FD4021984802F03DF801B030BD30B586
:103CB00081B0334D40220221280008F065FA90249B
:103CC000E40540228021200008F05EFA0122012153
:103CD000280008F059FA0120288301224021200001
:103CE00008F052FA4020208301B030BD00B581B009
:103CF000FFF7DDFF8021844802F07CF801B000BDB1
:103D0000F0B581B0FFF7D3FF7F4F8021380002F07C
:103D100009F87E49884221DB0124642004F067FD14
:103D2000FFF79FFF0600FFF776FF0500FFF7BFFFD5
:103D30008021380001F0F6FF7449884202DB7448A4
:103D40008684C584FFF7B3FF7148112141568C4228
:103D500008D02100447403D0022007E00024F3E7D8
:103D6000032003E0601E8041C043C00F01B0F0BDDE
:103D70001000004894380020240000408813000000
:103D800000040048F0B583B05F4802F044F800201A
:103D90000090F023A0225200002106F0FDFABA4C58
:103DA0000094202300220021002006F022FE00942F
:103DB000002320220021002006F01BFE002000909E
:103DC00023000A220A21BF4806F064FD504CFFF789
:103DD0006EFF4E4D4C48802101F0A4FFA84200DA4E
:103DE0008EE00127642004F002FDFFF73AFF060091
:103DF000FFF711FF0500FFF75AFF4348802101F04C
:103E000091FF4249884201DBA684E584FFF74FFF1A
:103E1000112020568742DAD038006774D7D1242188
:103E2000605E02902621605E019000200090F023E9
:103E3000A0225200002106F0AFFAFF254035924C37
:103E40000094D0232A00EF21280006F0D2FD009430
:103E5000EF2390225200EF21280006F0CAFD002037
:103E600000902300DC22E621974806F013FD274F3F
:103E7000FFF71DFF2448802101F054FFB84241DBC9
:103E80000124642004F0B3FCFFF7EBFE0600FFF70B
:103E9000C2FE0500FFF70BFF1B48802101F042FF27
:103EA000B84202DB1A488684C584FFF700FF184831
:103EB000112141568C42DBD021004474D8D1834C6F
:103EC0000298A0820198E082114D2420285E029978
:103ED000401A0001A0214900FFF70DFA2083262097
:103EE000285E0199401A0001F021FFF704FA60836F
:103EF000FFF7DDFE8021044801F07CFF03B0F0BD38
:103F0000002785E70024D2E700240140D107000004
:103F100048230020F0B583B0DE4801F07CFF00208C
:103F20000090F023A0225200002106F035FA002074
:103F3000009055480300E9220F21654806F0AAFCCD
:103F4000644CFFF7B4FE644DD248802101F0EAFED4
:103F5000A84263DB0127642004F049FCFFF781FEDF
:103F60000600FFF758FE0500FFF7A1FEC9488021B3
:103F700001F0D8FE5849884201DBA684E584FFF7AA
:103F800096FE112020568742DBD038006774D8D0C7
:103F90002421605E4D491422895E401A00014B497C
:103FA0001822895EFFF7A7F904004A482621405EDF
:103FB00046491622895E401A000144491A22895E48
:103FC000FFF799F902940190FFF771FE424FB14853
:103FD000802101F0A7FEB84222DB0124642004F016
:103FE00006FCFFF73EFE0600FFF715FE0500FFF793
:103FF0005EFEA848802101F095FEB84202DB3548FC
:104000008684C584FFF753FE324F11203856844210
:104010000AD020007C7405D0022606E00027B0E715
:104020000024F1E7032600E02600284C2420385E17
:104030001421615E401A00011821615EFFF75BF9EF
:1040400005002620385E1621615E401A00011A2103
:10405000615EFFF750F904000B48009023002A002E
:104060000199029806F0C5FC02950194FA204000DF
:1040700004F0BDFB032EA7D1FFF719FE8021854870
:1040800001F0B8FE03B0F0BDFFFF0000F0B5040082
:104090000D000E4E0F4F2420385E1421715E401A21
:1040A00000011821715EFFF726F920602620385E96
:1040B0001621715E401A00011A21715EFFF71BF98B
:1040C0002860F0BDF0FD000804FE00081004002088
:1040D00018FE000848230020D1070000F0B583B087
:1040E0006C4801F098FE00200090F023A0225200BE
:1040F000002106F051F99A4C042001900020009014
:10410000230005220521974806F056FC0020009068
:10411000230028220521944806F0BCFB93A500202B
:104120000090230032220521280006F0B3FB002076
:10413000009023003C2205218D4806F0ABFB0020B7
:1041400000902300462205218A4806F0A3FB0020A8
:104150000090230050220521280006F09BFB002040
:10416000009023005A2205219D4806F093FB002071
:1041700000902300642205219A4806F08BFB002062
:104180000090230078220521974806F083FB002049
:104190000090230082220521944806F07BFB00203A
:1041A000009023008C220521914806F073FB00202B
:1041B00000902300962205218E4806F06BFB00201C
:1041C00000902300A02205218B4806F063FB314FAD
:1041D000FFF76DFD894C8021380001F0A3FDA0425E
:1041E00018DB0126642004F002FBFFF73AFD04000F
:1041F000FFF711FD0500FFF75AFD8021380001F09F
:1042000091FD7E49884202DBB8488484C584FFF76B
:104210004EFD00E00026B548112141568E4202D0E5
:104220003100467404D10124FFF770FC0440CFD064
:10423000FFF73DFD8021384601F0DCFD03B0F0BD05
:1042400010B582B0134801F0E6FD00200090F02385
:10425000A0225200002106F09FF8414C002000905F
:1042600023000F220521A24806F014FB0020009035
:104270002300192205219F4806F00CFB9E489F4908
:104280000860BFF34F8F9E48B7490860BFF34F8F58
:1042900000BFFDE70024014030B581B0050006D025
:1042A000022D08D005D3042D09D006D30AE0012041
:1042B00006E0022004E0002002E0042000E00320E9
:1042C000FDF738FCA94C6D1C257404F03DF8E07C2A
:1042D00080002018C06A00F0DFFD01B030BD10B5CD
:1042E00082B0FDF79BFC04F02FF8804CE07C0028A6
:1042F00012D0401EE07400F0C7FB00200090E023C5
:104300003C2200218220400006F046F8E07C80003C
:104310002018C06A00F0C0FDB44800F0E5FB02B010
:1043200010BD00B581B0022802D0032804D012E0ED
:1043300000208F49C8810EE08D48C189002903D033
:10434000802252004A40C2818848C17C89004018BE
:10435000C06A00F0A1FD03F0F7FF01B000BD00004E
:10436000FFFF000030FE00083CFE000800000000D7
:1043700060FE00088CFE0008052800D3704710B5C9
:1043800082B005F003FD002828D1584CE07C0028BD
:1043900012D0401EE07400F077FB00200090E02374
:1043A0003C2200218220400005F0F6FFE07C8000E6
:1043B0002018C06A00F070FDA07B00280AD0FF2002
:1043C0002E30A0490860E920B549086000F052FE8F
:1043D0000020A07301F04CFD03F0B6FF02B010BD49
:1043E000CCFE0008E8FE00080CFF00081CFF0008D7
:1043F0002CFF00085CFF000880FF0008D1070000C8
:1044000010B582B0002805D0022809D005D30328B2
:104410002FD03CE0FFF7B6FC2DE0FFF77BFD2AE054
:1044200005F0C8FB514CE07C002813D0401EE0741E
:1044300000F02AFB00200090E0233C220021822093
:10444000400005F0A9FF20002C30E17C8900405895
:1044500000F022FDA07B002819D0FF202E307949E2
:104460000860E9208E49086000F004FE0020A07377
:104470000DE0FFF733FE04F07BF804F065F83B48ED
:1044800001002C31C07C8000085800F005FD02B00E
:1044900010BD002800D0704710B582B09A4801F0D6
:1044A000BAFC00200090F023A0225200002105F069
:1044B00073FF964C0020009023000F2205210C482A
:1044C00006F0E8F900200090230019220521094890
:1044D00006F0E0F9084809490860BFF34F8F084823
:1044E00021490860BFF34F8F00BFFDE7482300203C
:1044F000BCFF0008E0FF0008EFBEADDEF03F00208B
:104500000400FA05052800D3704710B582B005F005
:10451000C9FB002826D1154CE07C002812D0401E93
:10452000E07400F0B1FA00200090E0233C2200216A
:104530008220400005F030FFE07C80002018C06A37
:1045400000F0AAFCA07B00280AD0FF202E303D49B5
:104550000860E9205249086000F08CFD0020A0733B
:1045600003F0F2FE02B010BD0CED00E04823002085
:10457000800A0020042800D3704730B581B08049FC
:104580004200121892008A187E4BD3187E4C1A787B
:10459000002A1ED00222A25690421CD10020187080
:1045A000784BCB185500AA1892009A5C002A13D1B8
:1045B0001A78002A0FD101201A7B002A0BD1022081
:1045C0001A7E002A07D10320BB4A895C002903D048
:1045D00001E001211970A07003F0B6FFE07C8000BB
:1045E0002018C06A00F058FC01B030BD700001080E
:1045F00010B5654C002806D0022808D005D3042841
:1046000009D006D30CE0002106E0012104E00221DC
:1046100003E0032100E0062102202056FDF7D2FF2F
:1046200003F092FFA07B00280AD0FF202E3005491E
:104630000860E9201A49086000F01CFD0020A07302
:1046400010BD0000DC22002010B54F4C052815D805
:1046500001A1095C8F4400BF060A0E12161A04213C
:1046600008E0052106E0072104E0082102E0092115
:1046700000E00A2102202056FDF7A4FF03F064FFAA
:10468000A07B00280AD0FF202E3097490860E9203F
:104690000349086000F0EEFC0020A07310BD00008C
:1046A000E02200200100022900D3704710B582B03B
:1046B000354C02202056FDF7BDFFE07C002812D0CB
:1046C000401EE07400F0E0F900200090E0233C225E
:1046D00000218220400005F05FFEE07C8000201871
:1046E000C06A00F0D9FBA07B00280AD0FF202E3042
:1046F0007D490860E920B649086000F0BBFC002055
:10470000A07302B010BD000000240140FFFF0000B4
:1047100000B581B0002803D0022823D018D32CE0A4
:10472000AC480178E7220A4008211143017016487D
:10473000807B002821D0FF202E306B490860E920C3
:10474000A349086000F096FC00200F49887314E02C
:10475000A0480178E7220A4002700B48807B0028BD
:10476000E9D10AE09B480178E7220A401021114371
:1047700001700548807B0028DDD101B000BD00003C
:10478000800A00207011000048230020052800D96D
:10479000704700B581B001A1095C8F44043E4E5EB4
:1047A00090728C480178CA0702D5FE220A4001E0C7
:1047B00001220A43027003F0F3FCB248807B002818
:1047C00035D0FF202E3048490860E9208049086034
:1047D00000F050FC0020AB49887328E07D48017848
:1047E000F9220A400221114301700CE07948017856
:1047F000F9220A4004211143017004E07548017850
:10480000F9220A4002709F48807B0028D9D10EE02F
:10481000FFF7B8F9400705D5082000F00FFD00F0BC
:10482000BDFE04E0082000F02FFD00F041FF01B0C4
:1048300000BD10B5441D052C0CD1A9489149022298
:1048400089564A00511889004018B849405C02282E
:1048500000D10924FFF796F9400705D5200000F0A4
:10486000EDFC00F09BFE10BD200000F00DFD00F0FF
:104870001FFF10BD10B50400042802D9401F10D03E
:1048800010BDFFF77FF9400705D5200000F0D6FCEA
:1048900000F084FE10BD200000F0F6FC00F008FFE0
:1048A00010BDFBF79AFD8F48C17C89004018C06A93
:1048B00000F0F2FA10BD000094110000042809D2A3
:1048C0008749C00008188D225201801800228256A4
:1048D000002A02D10020C04370470222805E80007F
:1048E0000818006970470000DC22002070B582B013
:1048F0000600B24805682800FFF7E0FF04003AD43C
:10490000012E06D026D3032E08D005D3042E08D0BE
:1049100020E0210000201BE0210018E021000220FF
:1049200016E058480D214656AE4224D03000FFF71D
:10493000C5FF05001FD4A54204DA25003000FFF7AB
:10494000BDFF040021000020FCF7A2FC290001208B
:10495000FCF79EFC4B4CA07B00280AD0FF202E3099
:10496000AC490860E9201A49086000F083FB002088
:10497000A07303F0E9FC02B070BD10B481B0414AED
:104980000D215356B5490024E443A04218D10B62CF
:104990005473A34219D1002000228A56002A13D151
:1049A000012008228A56002A0ED1022010228A569F
:1049B000002A09D1032018228A56002A05D003E0D4
:1049C0000C6AA34200D05473086201B010BC704757
:1049D000E0220020441C002030B581B0404C042867
:1049E00033D2C10061188D225201891800228A56E3
:1049F000002A25D08D225201A218136A984221D193
:104A00000020087037490D23CB5613620025ED4373
:104A10004D73AB4226D10021515600290ED1012001
:104A200008215156002909D1022010215156002990
:104A300004D1032018215156002913D0106211E02F
:104A400001220A70FFF799FF0CE00BD18D20400185
:104A5000201800210170017201740176C943214AB6
:104A60005173016201218D2040012018006A02F07B
:104A700096FF1C48C17C89004018C06A00F00CFAFF
:104A800001B030BD48230020AA48C17C89004118EC
:104A9000C96A00220B78002B1BD0521C53009B18B4
:104AA0009B00CB5C002B14D0521C53009B189B0026
:104AB000CB5C002B0DD0521C53009B189B00CB5C91
:104AC000002B06D0521C53009B189B00CB5C002B84
:104AD000E3D110214156914201DB511E0174704710
:104AE000800A00204823002010B582B0914CE17C60
:104AF000032901DA491CE17421002C31E27C920087
:104B00008850FFF7C1FF00200090E0233C220021E5
:104B10008220400005F040FC20002C30E17C890020
:104B2000405800F0B9F902B010BD0000711100004A
:104B300030B581B07F4CE17C22002C328B00D25802
:104B400043001B189B00D2181378052B33D801A5FE
:104B5000ED5CAF4404045A502204A07B00282AD004
:104B6000FF202E302B490860E9207349086000F0CF
:104B700081FA0020A0731EE000291CD0481EE074BA
:104B8000FFF782FF00200090E0233C2200218220DA
:104B9000400005F001FC20002C30E17C89004058E9
:104BA00000F07AF907E091680A0004D0884702E033
:104BB0009068FFF799FF01B030BD0000401C002055
:104BC000F0B583B000245B4F1AE05C4A15891023CE
:104BD000FB569C4200D1558900952C232C224988F4
:104BE00005F0DAFBF86B8019A749019500220092C5
:104BF00043880A3302880C32007905F044FF641CB4
:104C0000600006197600F86B811908880028DCD14D
:104C100003B0F0BDDC22002030B583B0484C0094D6
:104C20002023A0225200D021002005F0B5FB0094E3
:104C30000023DC220A2195483E4DED7BAD00405912
:104C400005F028FE019400200090D82396225200FF
:104C50008D49142005F017FF03B030BD201C002043
:104C6000F0B587B00025402489490595049003914B
:104C700004980378002B4DD00020314A2E2B01D10F
:104C80000A230BE02D2B01D10B2307E01E00303E41
:104C90000A2E01D2303B01E00023DB430293254B77
:104CA00000269E5708277F1BBE4206D17948012661
:104CB00005969B57002B00D000220299002907D4AB
:104CC000714901920090D42322000298C0B208E0FA
:104CD0000599002908D06C4901920090D423220044
:104CE000002005F0D0FE06E0009218231422D42103
:104CF000200005F051FB143403980088002800D0F0
:104D000024186D1C0398801C03900498401C049088
:104D10000A2DADDB20000A2D0ADA0949009118237B
:104D20000A21491B8A0052189200D42105F034FB55
:104D300007B0F0BD48230020E0220020100400202E
:104D4000FFFF000010B481B0844CA04211D10429AF
:104D50000FDA83484A00521892008018814A805C1A
:104D6000002800D18DE080484900401880891880D3
:104D700087E07E4CA0420AD1042908DA7848C900AD
:104D800040188D2149014056002876D179E0784CB1
:104D9000A04224D1002903D17148807B800710E014
:104DA000012903D16E48807B40070AE0022903D124
:104DB0006B48807BC00704E0032904D16848807BEE
:104DC000C00606D45DE004295BD16548807B0007FE
:104DD00057D5A3480178FE240C4004704DE0A14C47
:104DE000A04206D105294CD19F48002140560028F9
:104DF00039E09E4CA04205D1032942D15848C089D0
:104E0000C00507E09A4CA0421CD1002904D1944867
:104E10000078C00731D434E0012905D190480078EA
:104E20000621014002291EE0022905D18C480078A4
:104E300006210140042916E0032922D18848007880
:104E400006210FE09D4CA0421BD1002905D18448CA
:104E5000007818210140082905E0012905D1804882
:104E60000078182101400CD107E0022909D17C48C3
:104E7000007818210140102903D1002018809048A3
:104E8000108001B010BC7047A02E0108E806010890
:104E900010070108F0830000F0B585B0002506007A
:104EA000049085277F003078002854D001284ED008
:104EB0006C012D4801896A4691800021D180814989
:104EC0008A7B012A06D1102289568D4202D140895F
:104ED00069468880822040006946898800911E23A7
:104EE0003C22210005F058FA01AB01AA921C2900CE
:104EF0000498FFF727FF706802900178022908D014
:104F00006946898800916946CB880C3422003900B3
:104F10001BE0401C07F0A8F90390684680880090C9
:104F20006846C3882200083239000298401C05F008
:104F3000B1FC6846808800906846C3880F34220020
:104F400039000298039C0019801C05F0A3FC6D1C1D
:104F50000C36072DA7DB05B0F0BD00000C010108E1
:104F6000800A00207011000010040020D003010806
:104F700010000108F0B581B0524CE07C8000201890
:104F8000C06A00900646A14D2420205E1421695E6F
:104F9000401A00011821695EFEF7ADF907002620CE
:104FA000205E1621695E401A00011A21695EFEF733
:104FB000A2F90025FF21891D3278002A2DD0012A6F
:104FC00007D00122D243904203DD202801DA8F422C
:104FD00037DA012532000C321378002B1DD0012B5B
:104FE00008D06B019E1E864204DA2033984201DA13
:104FF0008F4226DA6D1C137B002B0ED0012B08D0BC
:105000006B019E1E864204DA2033984201DA8F42F9
:1050100017DA6D1C1832072DDEDBFEF771FE032850
:10502000FBD1A07B00280AD0FF202E3094490860D5
:10503000E9209449086000F01DF80020A07301B039
:10504000F0BD25740098FFF727FFFEF759FE0328EF
:10505000FBD10020C04320742800FFF769FDEEE774
:10506000441C00207003010801040020C400010852
:10507000BC02010800B581B01248807B01280BD129
:1050800002F09CFC00200090E0233C2200218220C2
:10509000400005F081F90DE002280BD102F0BCFCC4
:1050A000002000902023A0225200D02105F074F9A6
:1050B00003F076F801B000BD000000008002010896
:1050C000FFFF00004823002030B581B0944CE07B06
:1050D000092845D801A1095C8F4400BF0A121A2291
:1050E0002A32465A646A0020FCF77DF937E0012035
:1050F000FCF779F933E00220FCF775F92FE0032083
:10510000FCF771F92BE00420FCF76DF927E0022091
:105110002056FDF7CFFA8349FEF747F907F0ACF8C0
:105120001DE002202056FDF7EEFA7E49FEF73DF91C
:1051300007F0A2F813E0FDF713FD07F09DF80EE06D
:10514000794800780BE002202056FDF7B3FA03F00F
:105150003DFCA7A20CCA03F0E1FC07F0B3F86060C5
:10516000606800250A2806D3082D04DC0A21FEF712
:10517000C5F86D1CF6E725706068A06001B030BD11
:1051800010B5674CE07B08283FD801A1095C8F442B
:10519000080E141A202A48667200616800200AE08E
:1051A0006168012007E06168022004E06168032073
:1051B00001E061680420FCF76BF810BD606805F041
:1051C000F5FC0022874B07F094F803F069FD01001D
:1051D00002202056FDF74AFA10BD606805F0E6FC93
:1051E0000022804B07F085F803F05AFD01000220F1
:1051F0002056FDF774FA10BD606803F0CBFBFDF795
:10520000A1FC10BD60684849087010BD1004002062
:1052100010B5434CA07B01280FD00120A073F520CE
:1052200017490860E92070490860FFF72DFCE07C11
:1052300080002018C06AFFF72FFE10BD30B583B084
:105240000500374CA07B022818D0FFF713FFE57349
:105250000220A073FF202E3009490860D0200949A0
:105260000860FFF7D9FCFFF72FFF636862A20A21ED
:10527000684603F050FF6846FFF7F2FC03B030BD0C
:10528000DC220020E022002025498A7B032A00D16D
:10529000704710B5C873554A80001058C863002283
:1052A0000A23C356002B23D4521C03000A33540094
:1052B000A41864001B57002B1AD4521C03000A3395
:1052C0005400A41864001B57002B11D4521C030077
:1052D0000A335400A41864001B57002B08D4521C36
:1052E00003000A335400A41864001B57002BDBD5BD
:1052F0000A7503208873F520A34A1060C9203A4A32
:105300001060C87C80000818C06AFFF7C5FDFFF771
:1053100057FCFFF781FC9DA0FFF7A2FC10BD000029
:105320004823002000007A44451C002070B582B05C
:10533000FEF7ECFB002852D0C10702D5FFF768FF4B
:105340004DE00400924D8E2040012E183068002858
:105350003BD4C00028188D21490140180021415636
:10536000002932D0A10615D50221415E002911DDA8
:10537000491E41803068C00029001031854AAA18B2
:10538000125E92008958844AAA1811500021306890
:1053900002F005FBE00618D57E4828183168C900E0
:1053A000411800228A5E642A0FDA521C0A80316892
:1053B000C9002A001032405E80001058764AAA18B0
:1053C00050500021306802F0EAFAFEF7DBFB0400DF
:1053D000B9D13068002802D4012102F0E0FA02B00D
:1053E00070BD000000408F40E0220020C006010890
:1053F000000000A2941A6D4225396400F0B581B016
:10540000A64CE16B420010184000081804214656D3
:1054100030000C38042808D3152E01D1A04D12E01D
:10542000162E5AD1FE25AD050DE0FE25AD050C3E2C
:10543000002E08DD9A4F29003800FDF7B6FF010065
:10544000761EF9D10D0020001830FDF76DF9290006
:10545000FDF7ABFFE17B09293DD801A2525C9744DF
:1054600008121C26306A3E4A505A05F00FFE010011
:10547000002012E005F00AFE010001200DE005F019
:1054800005FE0100022008E005F000FE01000320F7
:1054900003E005F0FBFD01000420FBF7F9FE1AE034
:1054A000010002202056FDF71AF914E0FDF74AFB2F
:1054B00011E005F0EBFD7B4908700CE003F086FA83
:1054C00079A20CCA03F02AFB03F0EAFB01000220D8
:1054D0002056FDF7CBF801204CE00A2E09DA122005
:1054E00020560A283BDA3036220018321654401C67
:1054F00034E020D1122020560A2830DA002223007E
:105500001833824238DA1D782E2D28D0521C824260
:1055100032DA5D782E2D22D0521C82422CDA9D7810
:105520002E2D1CD0521C824226DADD782E2D16D06C
:10553000521C1B1DE5E70B2E07D112202056002818
:105540000DD12D202076012008E0102E07D1122049
:105550002056002801D102200CE0401EA07400203B
:10556000210018311222A256885420001830FFF76B
:1055700077FB002001B0F0BD9042F0D12E22230035
:1055800018331A54401CE9E7DC2200200000000018
:10559000800A0020A2110000A411000070B584B0A0
:1055A000FEF7B4FA002877D0A64E01285BD1FEF7AB
:1055B000E9FA01217156002905D0052101406BD07F
:1055C0000020707003E0012142070AD571707368F2
:1055D0009DA20A21684603F09EFD6846FFF740FB46
:1055E0005AE0014058D0FFF7CBFD47E0401C307037
:1055F000736895A20A21684603F08DFD6846FFF79F
:105600002FFBE0062AD500203056002836DD401E4C
:10561000307073681AE001253056002804DDA900B7
:105620004D196D00401EFAD1A0060AD570684319C5
:10563000736085A20A21684603F06DFD6846FFF796
:105640000FFBE0060AD57068431B73607EA20A2137
:10565000684603F060FD6846FFF702FBFEF792FA2A
:10566000040001D118E00400012030560028D2D0F7
:10567000A006C6D5002030560828B7DBB07B00282E
:105680000AD0FF202E3071490860E9207049086077
:10569000FFF7F0FC0020B07304B070BD4823002079
:1056A00000007A44451C002011EA2D819997713D34
:1056B000F0B581B0674800F0AEFB624D0020A874E1
:1056C000FEF724FA04003020204024D026001020C9
:1056D000304008D0287C401E40B2002800D5287DEC
:1056E0002874FFF76DFA2020304010D0287C401C31
:1056F0002874E96B40B242001018400008180421D9
:105700004056002801D500202874FFF759FAFEF70B
:1057100039FA0600DBD1012C05D110216856FFF7BC
:105720006DFE002869D1FEF7C2FA4B4C494F80212B
:10573000380000F0F7FAA04238DB0124642003F0BF
:1057400056F8FEF78EFA0600FEF765FA0500FEF73A
:10575000AEFA8021380000F0E5FA3F49884202DBCA
:1057600038488684C584FEF7A2FA364D11202856A3
:105770008442A5D020006C74A2D00024BA4F24200B
:10578000285E1421795E401A00011821795EFDF728
:10579000B2FD06002620285E1621795E401A00011F
:1057A0001A21795EFDF7A7FDE96B03E00024DCE731
:1057B000641C891D0A88002A3FD0931EB342F7DA81
:1057C0002E329642F4DA4A88931E8342F0DA2E3261
:1057D0009042EDDA2C74FFF7F3F9FEF791FA032803
:1057E000FBD10020C0432874FFF7EAF920001ED443
:1057F000FFF704FE002800D162E702F0B9FE02F0D4
:10580000A3FEA87B00280AD0FF202E300F49086095
:10581000E9200F490860FFF72DFC0020A873FEF770
:1058200046FA80210B4800F0E5FA01B0F0BD0121F5
:10583000C943884200D043E7F7E7C12800DA3FE7D1
:10584000F3E700004823002025396400DC22002013
:10585000E022002000240140D1070000F0B587B00D
:10586000814CCE4E2620305E1621615E401A00012A
:105870001A21615EFDF73FFD05002420305E1421F2
:10588000615E401A00011821615EFDF734FD0F389A
:105890000024C3498D2252018E180C3A8A180292B4
:1058A000724A891804910395070000203056002899
:1058B00063D0002504980078002813D06B4601AA15
:1058C0000021200001F0C1FB00980399401A0199C2
:1058D000CB1BC82149001A005A4303004343D01888
:1058E000884251DB01250498007B002813D06B46C9
:1058F00001AA0121200001F0A8FB00980399401A99
:105900000199CB1BC82149001A005A4303004343A5
:10591000D018884238DB02250498007E002813D076
:105920006B4601AA0221200001F08FFB0098039929
:10593000401A0199CB1BC82149001A005A430300A1
:105940004343D01888421FDB0325029800780028C3
:1059500013D06B4601AA0321200001F076FB0098CA
:105960000399401A0199CB1BC82149001A005A43D8
:1059700003004343D018884206DB641C0836032C1E
:1059800093DD002007B0F0BD0298C06AA04208D0A5
:10599000824948730298C46201210298C06A01F0EA
:1059A000FEFF7E498D707E48E1004018A9494118EC
:1059B0000391AB494018029005940495774E2A4C08
:1059C000049F2620305E1621615E401A00011A21D4
:1059D000615EFDF790FC05002420305E1421615EBD
:1059E000401A00011821615EFDF785FC0F383A006E
:1059F000290001F04BFB00280BD46949029B188059
:105A0000800008180069039908600121059801F0D9
:105A1000C6FFFEF74CF9A14CA148802100F082F9A5
:105A2000A0421FDB0124642002F0E1FEFEF719F919
:105A30000700FEF7F0F80500FEF739F998488021D5
:105A400000F070F99549884201DBB784F584FEF7D0
:105A50002EF9112030568442B1D020007474AED19A
:105A600001208FE70024F4E71004002070110000EB
:105A7000F0B583B0494CA06A401CA062884E30004B
:105A800000F0C9F9FEF73CF9022801D001287DD1C8
:105A9000A07B002803D0022812D00ED376E0FFF7B7
:105AA000DDFE002872D1FEF72BF90328FBD1002080
:105AB000C0432074FFF7ACFB68E0FFF75BFA65E0DA
:105AC000784D2420205E1421695E401A00011821BF
:105AD000695EFDF710FC07002620205E1621695E36
